:1000000023C0E1C5ABC4DFC5DEC5DDC5DCC5DBC5CE
:10001000DAC5D9C5D8C5D7C5D6C5D5C5D4C5D3C504
:10002000D2C5D1C5D0C5CFC5CEC5CDC5CCC5CBC534
:10003000CAC5C9C53F003F24000BC83F243F4880C4
:100040003F483F6A000BEC0011241FBECFEFCDBF2D
:10005000DFE3DEBFE4E3F0E040E017C0B591A59137
:1000600035912591059107FD0CC095918591EF0182
:10007000F92FE82F05900D92A217B307D9F7FE01CB
:1000800004C01D92A217B307E1F7E734F40731F774
:0800900082D100C0F894FFCFFB
:10009800000000000000005F0000000300030014DF
:1000A8003E143E14242A7F2A1243330866613649D7
:1000B8005522500005030000001C22410000412287
:1000C8001C0014083E081408083E080800503000B8
:1000D80000080808080800606000002010080402F2
:1000E8003E5149453E0004027F0042615149462283
:1000F800414949361814127F1027454545393E496C
:1001080049493201017109073649494936264949A1
:10011800493E0036360000005636000008142241D9
:100128000014141414140041221408020151090681
:100138003E4159555E7E0909097E7F494949363E47
:10014800414141227F4141413E7F494949417F091F
:100158000909013E4141493A7F0808087F00417F6B
:100168004100304040403F7F081422417F404040DA
:10017800407F020C027F7F0204087F3E4141413EDE
:100188007F090909061E2121215E7F0909097626B2
:100198004949493201017F01013F4040403F1F204A
:1001A80040201F7F2010207F41221C224107087019
:1001B80008076151494543007F41000002040810C7
:1001C800200000417F0004020102044040404040FA
:1001D800000102040020545454787F4444443838C1
:1001E80044444444384444447F3854545418040420
:1001F8007E0505085454543C7F0804047800447D67
:1002080040002040443D007F1028440000417F40CA
:10021800007C047804787C08040478384444443822
:100228007C14141408081414147C007C0804044872
:100238005454542004043F44443C4040207C1C2037
:1002480040201C3C4030403C44281028440C50506E
:10025800503C4464544C44000836414100007F003F
:1002680000414136080002010204020205020000B2
:05027800000000000081
:10027E00E7E4FFE380818E7F80838091433F9091FE
:10028E00443F019711F456D401C04ED4E4E2FFE38B
:10029E00878D90A10197878F90A3892B69F0A58DEB
:1002AE00B68D809118088C93858D968D0196858FCD
:1002BE00968F28D484E00895A4E2BFE35D96ED9175
:1002CE00FC915E978091180880835D968D919C912C
:1002DE005E9701965D968D939C935E97E7E4FFE3A0
:1002EE00808188608083ED91FC9111971C968D9191
:1002FE009C911D9709958250823018F41BD488E08A
:06030E00089570D308956C
:10031400CF93DF936BD2C0E0D4E01882A0E2B4E0C4
:100324001C92E0E4F4E010821C8214961C92149750
:100334001482188A198A1A8A1B8A1C8A1D8A1E8AA0
:100344001F8A50961C92509751961C925197529620
:100354001C92529753961C92539754961C925497FE
:1003640055961C92559756961C92569757961C92E2
:10037400108A118A128A138A148A158A168A178A8D
:10038400E0E0F2E01082118212821382DF91CF91B9
:020394000895CA
:10039600CF93DF93CDB7DEB72E97CDBFDEBF81D328
:1003A60004D18AE0E2E6FBE8DE01119601900D92A7
:1003B6008A95E1F78FE78B8786E48C8780E290E069
:1003C6008D879E8740E060E0CE01019652D040E0E6
:1003D60064E0CE0101964DD040E560E0CE010B967B
:1003E60048D040E564E0CE010B9643D040E061E0A2
:1003F600CE010D963ED080E090E02E96CDBFDEBFBA
:06040600DF91CF91089583
:10040C00A5D38823B1F0A4E2BFE31696ED91FC913D
:10041C00179752968D919C9153970995823019F0AC
:10042C00833019F004C0A3D20895BBD2089511D320
:10043C000895E7E4FFE3808188608083A4E2BFE352
:10044C00ED91FC9111971C968D919C911D9709959E
:10045C00833031F0843031F0823031F488D2089519
:0C046C00A0D2089539D00895F4D208956C
:10047800CF92DF92EF92FF920F931F93CF93DF9368
:100488008C01C62ED42E7FD380EB8C0DCFD28D2D30
:100498008F70CCD28D2D82958F708061C7D26FD32B
:1004A8007801C0E0D0E007C04D2D6C2DF701819197
:1004B8007F01F9D02196F80101900020E9F73197E2
:1004C800E01BF10BCE17DF0778F3DF91CF911F9177
:0C04D8000F91FF90EF90DF90CF900895FF
:1004E40039D38823B1F0A4E2BFE31696ED91FC91D1
:1004F400179752968D919C9153970995823019F0D4
:10050400833019F004C037D208954FD20895A5D28C
:100514000895E7E4FFE380818E7F8083E4E2FFE3D4
:10052400A58DB68DCD010196858F968F8C91809384
:100534001808878D90A10197878F90A3892B11F4B8
:0805440085E0089583E00895AD
:10054C009091473F92FD2CC0E4E2FFE3848FA7E437
:10055C00BFE3892F887F9EE091A324EF31E0228FA7
:10056C00338F846088608C9387ED95E080839183D2
:10057C0014861586828393831686178684839583C7
:10058C00108A118A86839783128A138A89ED95E0E3
:10059C0080879187148A158A6FD2A3D280E0089540
:0405AC0081E008954D
:1005B000EED26FE388EA9BD160E083ED98D160E0F2
:1005C00080E295D180E436D280EA34D280EC32D217
:1005D00062E080E28CD147E060E082E2ECD04FE75D
:1005E00060E081E2E8D060E08AED81D168EC81E8EA
:1005F0007ED186EA1FD261E885ED79D164E18DE88C
:1006000076D162E089ED73D18FEA14D2BCD2AED23A
:0206100008954B
:10061200CF93DF936BD28091473F80FF06C09BD27E
:10062200882319F08FE08093453F6CD2882319F01C
:1006320080E18093453F60D2882319F081E1809365
:10064200453FC4E2DFE3E9A1F0E0EE0FFF1FE05017
:10065200F14C0190F081E02D099589A3DF91CF91B2
:020662000895F9
:100664006115710581F090E0FC01EE0FFF1FEC5D58
:10067400F04C60837183880F991FFC01E05DF04C9E
:1006840040835183089590E0FC01EE0FFF1FEC5D61
:10069400F04C27ED35E020833183880F991FFC014E
:0A06A400E05DF04C10821182089511
:1006AE000F931F93CF93DF93C82F6AD28C2F90E0B6
:1006BE00EC01CC0FDD1FCC0FDD1FC80FD91FC850AA
:1006CE00D04800E010E08991AED10F5F1F4F05308A
:1006DE001105C9F740E060E080E066D049D2DF91B5
:0806EE00CF911F910F910895B7
:1006F600CF93DF93FFD1882341F0E7E4FFE38081C6
:100706008D7F808382E08093463F8091473F81FDC5
:100716000CC0E7E4FFE38B7F8083C4E2DFE38FEF67
:100726008C8FE2D1DBD18AA101C081E0DF91CF912C
:02073600089524
:1007380040E068ED88E790E01AD240E068ED8CE789
:1007480090E015D240E068ED80E790E010D24BE0F1
:1007580068ED81E690E00BD240E068ED80E690E03D
:1007680006D240E068ED82E690E001D280E008958C
:10077800E7E4FFE380818E7F8083A4E2BFE382E029
:1007880092968C9392971496ED91FC9115975096AA
:100798008D919C9151970995823019F0833019F009
:0E07A80004C0E7D00895FFD0089555D10895FC
:1007B600CF93DF93C8E4DFE3E881AE2FB0E0A85B18
:1007C600B04C11968C93A1E0AE0FB0E0A85BB04C94
:1007D60011966C9383E08E0F8883EE5FF0E0E85B02
:0A07E600F04C4183DF91CF9108959C
:1007F000E0E1F4E0808188608193E83184E0F807EB
:10080000C9F7E2E3F4E0808188608193E83384E013
:10081000F807C9F7E0E5F4E0808188608193E83566
:0808200084E0F807C9F7089510
:100828007AD1A4E2BFE382E092968C9392971296D3
:10083800ED91FC9113971E968D919C911F970995A8
:10084800823019F0833019F004C093D00895ABD0EA
:060858000895F7D0089599
:10085E00CF93C82F6093493F8C2F71DE8823E1F32D
:10086E006091483F70E089E49FE350D060E070E013
:10087E0081EE95E065D188D137DF8130E9F3CF91F4
:02088E000895CB
:10089000CF93DF93D82FC0EB7AD18C2FCBD080E0D1
:1008A000C9D080E1C7D06FD18D2FB9D068D167D1C1
:1008B00066D165D1CF5FC83B79F7DF91CF910895BD
:1008C0009091473F91FD11C0E7E4FFE39260908370
:1008D000882321F081E08093453F03C082E080932C
:0E08E000453F97DE2BD080E0089581E008951B
:1008EE00CF93DF93C8E4DFE3E881AE2FB0E0A85BDF
:1008FE00B04C11968C9382E08E0F8883EF5FF0E000
:0C090E00E85BF04C6183DF91CF9108950D
:10091A009C019091473F93FF0BC0E4E2FFE3258FD0
:10092A00368F678F70A3E7E4FFE3892F877F808381
:02093A0008951E
:10093C00CF93DF938091473F81FF07C0C7E4DFE38C
:10094C00A4D061DE888181FDFBCFDF91CF9108952A
:10095C001F920F920FB60F9211248F9381E0809308
:0E096C008A008F910F900FBE0F901F9018956C
:10097A00E7E4FFE38081816080838091403F880FB4
:0A098A0081608093170884E008954F
:10099400E0E1F8E010821282168281E083831582FE
:0A09A40017821482108680E0089587
:1009AE00E7E4FFE38081816080838091403F880F80
:0809BE008093170883E00895FF
:1009C60040E068ED80E191E0D3D0E0E1F1E0128211
:0609D600138280E0089589
:1009DC0053D0E7E4FFE380818D7F808382E08093B6
:0609EC00463F8EE0089575
:1009F200A7D09AD0E7E4FFE380818D7F80831092B5
:060A0200463F80E008956C
:100A080040E068ED80E890E0B2D0E0E8F0E01186E0
:060A1800108680E0089545
:100A1E00682F70E041E250E08AE49FE354D081E217
:060A2E008093483F08958B
:100A3400A8E4BFE3EC9191E09E0F9C93F0E0E85BA7
:060A4400F04C81830895CF
:100A4A001CD0E7E4FFE380818D7F80831092463FCC
:040A5A008EE008958D
:100A5E0065D0E7E4FFE380818D7F80831092463F6F
:040A6E0080E0089587
:100A7200E7E4FFE380818D7F80831092463F80E030
:020A82000895D5
:100A8400E0E1F8E0848188608483858181608583E6
:020A94000895C3
:100A9600E0E1F8E0858188231CF0858186FFFACFA6
:020AA6000895B1
:100AA80035DCAEDF0CD044DE03D070DF88DF08957C
:0E0AB80040E068ED80E590E05AD080E00895BF
:0E0AC60040E068ED80E091E053D080E00895BC
:0E0AD400DC0101C06D9341505040E0F70895E1
:0C0AE200E0E1F8E083818F7383830895C6
:0C0AEE00E0E1F8E08581806C85830895CC
:0C0AFA008091150882FB882780F9089580
:0C0B06008091150883FB882780F9089572
:0C0B1200E0E1F8E08481826084830895B3
:0C0B1E00E0E1F8E085818860858308959F
:0C0B2A00E0E1F8E084818360848308959A
:0C0B3600E0E1F8E084818B7F8483089567
:0C0B4200E0E1F8E0848184608483089581
:0A0B4E00AB01BC0182E087DD0895D1
:0A0B580080911508829581700895C0
:0A0B620054656D703A203131310006
:0A0B6C008FEF90DE80E08EDE08952A
:080B7600FC0164BF40830895F7
:080B7E0060E48CE36DDE0895D4
:080B860060E08CE369DE0895D4
:080B8E0081E08093483F0895C7
:060B960080E093DE0895EB
:060B9C00CCDF83E00895A8
:060BA200C9DF84E00895A4
:060BA800CCDF88E0089597
:040BAE0081E0089545
:040BB20085E008953D
:040BB600E1DE0895DF
:040BBA00DFDE0895DD
:040BBE00F7DE0895C1
:040BC20083E008952F
:020BC6001CCA47
:100BC8003905BD04D70472023F010602DD05DF05C1
:100BD800DB052F05D105CE05F904D4052505BC0391
:040BE8001404EE04FF
:100BEC0001000000000000000000000000000000F8
:100BFC0000000000000000000000000000000000E9
:020C0C000000E6
:02000004008278
:090000000000020000C40700002A
:00000001FF
