:1000000023C0BCC598C4BAC5B9C5B8C5B7C5B6C5BF
:10001000B5C5B4C5B3C5B2C5B1C5B0C5AFC5AEC52C
:10002000ADC5ACC5ABC5AAC5A9C5A8C5A7C5A6C55C
:10003000A5C5A4C53F003F24000B7E3F243F6A8036
:100040003F6A3F72000BA20011241FBECFEFCDBF4D
:10005000DFE3DEBFE4E3F0E040E017C0B591A59137
:1000600035912591059107FD0CC095918591EF0182
:10007000F92FE82F05900D92A217B307D9F7FE01CB
:1000800004C01D92A217B307E1F7E734F40731F774
:0800900089D300C0F894FFCFF2
:10009800000000000000002E00000600060000140A
:1000A8007F147F1406497F493024100824003649FC
:1000B80036500000000006000041360000003641BE
:1000C8000000000800000000081C08004020000094
:1000D80000000808000020000000000030060000B2
:1000E800364141360000000036003049490600001C
:1000F800494936000608083600064949300036499D
:1001080049300000010136003649493600064949A0
:10011800360000140000002014000000000814221B
:100128000000141414000022140800000131060015
:10013800364955592E360909360077494936003669
:1001480041410000774141360036494900003609EF
:1001580009000036415130003608083600000036E4
:1001680000000040403600360814220036404000A7
:100178000036010601363604103600364141360095
:1001880036090906003641215600360919260006A7
:1001980049493000000137010036404036003640FA
:1001A80036000036403040363608083600064848E3
:1001B80036002051494502774141000000063000D1
:1001C80000004141770000020102000040400000A9
:1001D80000010200002054543840003648300030F6
:1001E8004848000030484876003854540800086CE5
:1001F8000A0000085454380036080830000034005B
:1002080000000040340000361028000036000000CE
:1002180000300810083030080830003048483000F6
:10022800781414080008141468003008080000083E
:1002380054542000082C4800003040403000304022
:10024800300000304020403028101028000850505E
:10025800380024342C240008364100000036000001
:10026800000041360800080810100036413600002A
:10027800E7E4FFE380818E7F80838091433F909104
:10028800443F019711F44AD401C042D4E4E2FFE3A9
:10029800878D90A10197878F90A3892B69F0A58DF1
:1002A800B68D809118088C93858D968D0196858FD3
:1002B800968F1CD484E00895A4E2BFE35D96ED9187
:1002C800FC915E978091180880835D968D919C9132
:1002D8005E9701965D968D939C935E97E7E4FFE3A6
:1002E800808188608083ED91FC9111971C968D9197
:1002F8009C911D9709958250823018F40FD488E09C
:06030800089560D3089582
:10030E00CF93DF9365D2C0E0D4E01882A0E2B4E0D0
:10031E001C92E0E4F4E010821C8214961C92149756
:10032E001482188A198A1A8A1B8A1C8A1D8A1E8AA6
:10033E001F8A50961C92509751961C925197529626
:10034E001C92529753961C92539754961C92549704
:10035E0055961C92559756961C92569757961C92E8
:10036E00108A118A128A138A148A158A168A178A93
:10037E00E0E0F2E01082118212821382DF91CF91BF
:02038E000895D0
:10039000D4D38823B1F0A4E2BFE31696ED91FC918B
:1003A000179752968D919C9153970995823019F029
:1003B000833019F004C0CED20895E6D2089531D327
:1003C0000895E7E4FFE3808188608083A4E2BFE3CF
:1003D000ED91FC9111971C968D919C911D9709951B
:1003E000833031F0843031F0823031F4B3D208956B
:0C03F000CBD2089503D0089514D30895D3
:1003FC009ED38823B1F0A4E2BFE31696ED91FC9155
:10040C00179752968D919C9153970995823019F0BC
:10041C00833019F004C098D20895B0D20895FBD25D
:10042C000895E7E4FFE380818E7F8083E4E2FFE3BD
:10043C00A58DB68DCD010196858F968F8C9180936D
:10044C001808878D90A10197878F90A3892B11F4A1
:08045C0085E0089583E0089596
:100464009091473F92FD2CC0E4E2FFE3848FA7E420
:10047400BFE3892F887F9EE091A324EF31E0228F90
:10048400338F846088608C9382EB95E080839183C2
:1004940014861586828393831686178684839583B0
:1004A400108A118A86839783128A138A84EB95E0D3
:1004B40080879187148A158AC5D208D380E008956D
:0404C40081E0089536
:1004C800EF92FF920F931F93CF93DF93E8E4FFE33C
:1004D80090E4918391E0908390E0EC01CC0FDD1FD4
:1004E800CC0FDD1F8C0F9D1FEC01C850D04800E0D9
:1004F80010E07F018FD0D701EC9181E08E0F8C93B3
:100508008991F0E0E85BF04C81830F5F1F4F053065
:10051800110581F7AFD2DF91CF911F910F91FF9015
:04052800EF900895B3
:10052C00E8E4FFE3118281E080836FE388EA9FD1E6
:10053C0060E083ED9CD160E080E299D180E456D2FA
:10054C0080EA54D280EC52D262E08AED90D168EC11
:10055C0081E88DD186EA4AD261E885ED88D164E1E3
:10056C008DE885D162E089ED82D18FEA3FD280D2CD
:04057C00BBD1089552
:10058000CF93DF93A5D28091473F80FF06C0D5D29D
:10059000882319F08FE08093453FA6D2882319F075
:1005A00080E18093453F9AD2882319F081E18093BE
:1005B000453FC4E2DFE3E9A1F0E0EE0FFF1FE050AA
:1005C000F14C0190F081E02D099589A3DF91CF9145
:0205D00008958C
:1005D2006115710581F090E0FC01EE0FFF1FEC5DEB
:1005E200F04C60837183880F991FFC01E05DF04C31
:1005F20040835183089590E0FC01EE0FFF1FEC5DF4
:10060200F04C22EB35E020833183880F991FFC01E7
:0A061200E05DF04C108211820895A3
:10061C0080916A3F90916B3F8038910531F0019643
:10062C0080936A3F90936B3F0895EAE6FFE381E085
:10063C0090E080839183828193818830910531F0A1
:10064C00019680936C3F90936D3F089581E090E00C
:0A065C0080936C3F90936D3F08956A
:10066600CF93DF9338D2882341F0E7E4FFE380811C
:100676008D7F808382E08093463F8091473F81FD56
:100686000CC0E7E4FFE38B7F8083C4E2DFE38FEFF8
:100696008C8F1BD214D28AA101C081E0DF91CF9149
:0206A6000895B5
:1006A800EF92FF920F931F93CF93DF938C017C01FE
:1006B800C0E0D0E005C0F70181917F0101DF2196FC
:1006C800F80101900020E9F73197E01BF10BCE17F4
:1006D800DF0788F3DF91CF911F910F91FF90EF9083
:0206E800089573
:1006EA0040E068ED88E790E028D240E068ED8CE7CA
:1006FA0090E023D240E068ED80E790E01ED24BE024
:10070A0068ED81E690E019D240E068ED80E690E07D
:10071A0014D240E068ED82E690E00FD280E00895BE
:10072A00E7E4FFE380818E7F8083A4E2BFE382E077
:10073A0092968C9392971496ED91FC9115975096F8
:10074A008D919C9151970995823019F0833019F057
:0E075A0004C0FBD0089513D108955ED1089518
:10076800EF92FF920F931F93CF93C82F8B017A01BB
:100778008C2F74DE8823E1F3B701C801A6D060E0AE
:1007880070E08CEB95E0D0D1DDD169DF8130E9F301
:0C079800CF911F910F91FF90EF900895FA
:1007A400CF93DF93CDB7DEB72D97CDBFDEBF5CD13E
:1007B400BBDE8DE0E6EBFAE8DE01119601900D92C6
:1007C4008A95E1F7CE0101966DDF80E090E02D96E9
:0A07D400CDBFDEBFDF91CF91089585
:1007DE00E0E1F4E0808188608193E83184E0F807FD
:1007EE00C9F7E0E3F4E0808188608193E83384E028
:1007FE00F807C9F7E0E5F4E0808188608193E83579
:08080E0084E0F807C9F7089522
:1008160074D1A4E2BFE382E092968C9392971296EB
:10082600ED91FC9113971E968D919C911F970995BA
:10083600823019F0833019F004C089D00895A1D010
:060846000895E2D00895C0
:10084C009091473F91FD11C0E7E4FFE392609083E4
:10085C00882321F081E08093453F03C082E08093A0
:0E086C00453F88DE52D080E0089581E0089577
:10087A00CF93DF93C8E4DFE3E881AE2FB0E0A85B53
:10088A00B04C11968C9382E08E0F8883EF5FF0E074
:0C089A00E85BF04C6183DF91CF91089582
:1008A600CF93DF93C8E4DFE390E49983682F70E089
:1008B60041E250E08AE49FE3F4D081E28883DBD012
:0C08C600DAD0D9D0D8D0DF91CF910895BE
:1008D2009C019091473F93FF0BC0E4E2FFE3258F19
:1008E200368F678F70A3E7E4FFE3892F877F8083CA
:0208F200089567
:1008F400CF93DF93C8E0D0E08FEFD3DF2197E1F708
:10090400C8E0D0E080E0CDDF2197E1F7DF91CF911F
:02091400089544
:10091600CF93DF938091473F81FF07C0C7E4DFE3B2
:1009260099D02BDE888181FDFBCFDF91CF91089591
:100936001F920F920FB60F9211248F9381E080932E
:0E0946008A008F910F900FBE0F901F90189592
:10095400E7E4FFE38081816080838091403F880FDA
:0A09640081608093170884E0089575
:10096E00E0E1F8E010821282168281E08383158224
:0A097E0017821482108680E00895AD
:10098800E7E4FFE38081816080838091403F880FA6
:080998008093170883E0089525
:1009A00040E068ED80E191E0CDD0E0E1F1E012823D
:0609B000138280E00895AF
:1009B60048D0E7E4FFE380818D7F808382E08093E7
:0609C600463F8EE008959B
:1009CC00ABD09ED0E7E4FFE380818D7F80831092D3
:0609DC00463F80E0089593
:1009E20040E068ED80E890E0ACD0E0E8F0E011860D
:0609F200108680E008956C
:1009F800A8E4BFE3EC9191E09E0F9C93F0E0E85BE4
:060A0800F04C818308950B
:100A0E001CD0E7E4FFE380818D7F80831092463F08
:040A1E008EE00895C9
:100A220074D0E7E4FFE380818D7F80831092463F9C
:040A320080E00895C3
:100A3600E7E4FFE380818D7F80831092463F80E06C
:020A4600089511
:100A4800E0E1F8E084818860848385818160858322
:020A58000895FF
:100A5A00E0E1F8E0858188231CF0858186FFFACFE2
:020A6A000895ED
:100A6C0050DCB9DF14D03BDE0BD07BDF93DF089575
:100A7C004091483F50E069E47FE38CE36FDE0895DA
:0E0A8C0040E068ED80E590E057D080E00895EE
:0E0A9A0040E068ED80E091E050D080E00895EB
:0E0AA800DC0101C06D9341505040E0F708950D
:0D0AB60048656C6C6F20576F726C642100F6
:0C0AC400E0E1F8E083818F7383830895E4
:0C0AD000E0E1F8E08581806C85830895EA
:0C0ADC008091150882FB882780F908959E
:0C0AE8008091150883FB882780F9089591
:0C0AF400E0E1F8E08481826084830895D2
:0C0B0000E0E1F8E08581886085830895BD
:0C0B0C00E0E1F8E08481836084830895B8
:0C0B1800E0E1F8E084818B7F8483089585
:0C0B2400E0E1F8E084818460848308959F
:0A0B3000AB01BC0182E04DDD089529
:0A0B3A0080911508829581700895DE
:080B4400FC0164BF4083089529
:060B4C0080E07EDE08954A
:060B5200E2DF83E00895DC
:060B5800DFDF84E00895D8
:060B5E00E2DF88E00895CB
:040B640081E008958F
:040B680085E0089587
:040B6C00F3DE089517
:040B7000F1DE089515
:040B740009DF0895F8
:040B780083E0089579
:020B7C0041CA6C
:100B7E001B05AA04C404FE013C01C801B805BA0550
:100B8E00B6051105AC05A905E604AF0507059503E5
:040B9E000B04DB0465
:080BA2000100010080000800C1
:02000004008278
:090000000000020000C40700002A
:00000001FF
