:1000000022C0E6C697C5E4C6E3C6E2C6E1C6E0C6BE
:10001000DFC6DEC6DDC6DCC6DBC6DAC6D9C6D8C6D4
:10002000D7C6D6C6D5C6D4C6D3C6D2C6D1C6D0C604
:10003000CFC6CEC63F003F0A803F0A3F58000DD2D0
:100040003F583F7C800011241FBECFEFCDBFDFE3C0
:10005000DEBFE4E3F0E040E017C0B591A591359133
:100060002591059107FD0CC095918591EF01F92F20
:10007000E82F05900D92A217B307D9F7FE0104C02F
:100080001D92A217B307E1F7E534F40731F7F6D074
:0600900000C0F894FFCF50
:10009600000000000000005F0000000300030014E1
:1000A6003E143E14242A7F2A1243330866613649D9
:1000B6005522500005030000001C22410000412289
:1000C6001C0014083E081408083E080800503000BA
:1000D60000080808080800606000002010080402F4
:1000E6003E5149453E0004027F0042615149462285
:1000F600414949361814127F1027454545393E496E
:1001060049493201017109073649494936264949A3
:10011600493E0036360000005636000008142241DB
:100126000014141414140041221408020151090683
:100136003E4159555E7E0909097E7F494949363E49
:10014600414141227F4141413E7F494949417F0921
:100156000909013E4141493A7F0808087F00417F6D
:100166004100304040403F7F081422417F404040DC
:10017600407F020C027F7F0204087F3E4141413EE0
:100186007F090909061E2121215E7F0909097626B4
:100196004949493201017F01013F4040403F1F204C
:1001A60040201F7F2010207F41221C22410708701B
:1001B60008076151494543007F41000002040810C9
:1001C600200000417F0004020102044040404040FC
:1001D600000102040020545454787F4444443838C3
:1001E60044444444384444447F3854545418040422
:1001F6007E0505085454543C7F0804047800447D69
:1002060040002040443D007F1028440000417F40CC
:10021600007C047804787C08040478384444443824
:100226007C14141408081414147C007C0804044874
:100236005454542004043F44443C4040207C1C2039
:1002460040201C3C4030403C44281028440C505070
:10025600503C4464544C44000836414100007F0041
:1002660000414136080002010204020205020000B4
:05027600000000000083
:10027C00CF93DF93CDB7DEB7A897CDBFDEBF09D53F
:10028C0057D20F2EF0E0AF2EFFE3BF2EF02D0F2E26
:10029C00F9E05F2EF02D0F2EF4E36F2EF4E07F2E9D
:1002AC00F02D0F2EF5E08F2EFFE39F2EF02DF9D4BD
:1002BC00F501252D11922A95E9F7F30180818860CB
:1002CC008083249A2C988AE196E00197F1F700003C
:1002DC002C9A24980F2EF0E0CF2EFFE3DF2EF02D7A
:1002EC0022C08FE090E0DAD386B186B185FBEE2494
:1002FC00E0F8F12CC701002E02C0880F991F0A9458
:10030C00E2F7F6019081892B808387E390E0C6D3D6
:10031C000F5F1F4F0830110521F7FFEFCF1ADF0ACF
:10032C008C149D0419F000E010E0DBCFF501208166
:10033C00818190E0820F911D2281820F911D23817A
:10034C00820F911D248130E08217930731F021E058
:10035C0040E062E08EE79DE81CD1F501608170E021
:10036C0080E090E02AE0AE014F5F5F4FECD321E0DC
:10037C0040E060E0CE0101960CD1F501618170E0A6
:10038C0080E090E02AE0AE014F5F5F4FDCD321E0CC
:10039C0040E260E0CE010196FCD0F501628170E094
:1003AC0080E090E02AE0AE014F5F5F4FCCD321E0BC
:1003BC0040E460E0CE010196ECD0F501638170E081
:1003CC0080E090E02AE0AE014F5F5F4FBCD321E0AC
:1003DC0040E061E0CE010196DCD0F501648170E073
:1003EC0080E090E02AE0AE014F5F5F4FACD321E09C
:1003FC0040E261E0CE010196CCD0F3E224EF80E044
:0E040C00F15020408040E1F700C0000050CFCA
:10041A00EBE7FFE380818E7F80838091773F909125
:10042A00783F019711F48BD401C083D4E8E5FFE348
:10043A00878D90A10197878F90A3892B69F0A58D4D
:10044A00B68D809118088C93858D968D0196858F2F
:10045A00968F5DD484E00895A8E5BFE35D96ED919B
:10046A00FC915E978091180880835D968D919C918E
:10047A005E9701965D968D939C935E97EBE7FFE3FB
:10048A00808188608083ED91FC9111971C968D91F3
:10049A009C911D9709958250823018F450D488E0B7
:0604AA0008959DD30895A2
:1004B000CF93DF9361D2C0E0D4E01882A0E2B4E031
:1004C0001C92E0E4F4E010821C8214961C921497B3
:1004D0001482188A198A1A8A1B8A1C8A1D8A1E8A03
:1004E0001F8A50961C92509751961C925197529683
:1004F0001C92529753961C92539754961C92549761
:1005000055961C92559756961C92569757961C9244
:10051000108A118A128A138A148A158A168A178AEF
:10052000E0E0F2E01082118212821382DF91CF911B
:0205300008952C
:100532001BD48823B1F0A8E5BFE31696ED91FC9198
:10054200179752968D919C9153970995823019F085
:10055200833019F004C00BD3089523D3089579D3BF
:100562000895EBE7FFE3808188608083A8E5BFE31D
:10057200ED91FC9111971C968D919C911D97099577
:10058200833031F0843031F0823031F4F0D208958A
:0C05920008D3089539D008955CD3089573
:10059E00CF92DF92EF92FF920F931F93CF93DF9341
:1005AE007C01062F142F222321F020E064E0600F3F
:1005BE00EFDF6701C0E0D0E00EC0412F602FF601E3
:1005CE0081916F014FD0CF30D10511F0185F02C06D
:1005DE000F5F10E02196F70101900020E9F73197A7
:1005EE00EE19FF09CE17DF0740F3DF91CF911F9170
:0C05FE000F91FF90EF90DF90CF900895D8
:10060A00AFD38823B1F0A8E5BFE31696ED91FC912C
:10061A00179752968D919C9153970995823019F0AC
:10062A00833019F004C09FD20895B7D208950DD32C
:10063A000895EBE7FFE380818E7F8083E8E5FFE39F
:10064A00A58DB68DCD010196858F968F8C9180935D
:10065A001808878D90A10197878F90A3892B11F491
:08066A0085E0089583E0089586
:100672000F931F93CF93DF93C82F162FD42F69D3D5
:1006820080EB810FD1D28D2F8F70CED28D2F82959C
:100692008F708061C9D27FD35CD38C2F90E0EC0144
:1006A200CC0FDD1FCC0FDD1FC80FD91FCA50D04899
:1006B20000E010E08991B8D20F5F1F4F053011059D
:1006C200C9F740E060E080E039D161D3DF91CF919A
:0606D2001F910F91089535
:1006D80090917B3F92FD2CC0E8E5FFE3848FABE768
:1006E800BFE3892F887F9EE091A324EF31E0228F1A
:1006F800338F846088608C938CED96E0808391833F
:100708001486158682839383168617868483958339
:10071800108A118A86839783128A138A8EED96E04F
:1007280080879187148A158AA4D2E0D280E0089540
:0407380081E00895BF
:10073C000BD36FE388EA9CD160E083ED99D160E044
:10074C0080E296D180E46BD280EA69D280EC67D2E9
:10075C0062E080E28DD147E060E082E2EAD04FE7D0
:10076C0060E081E2E6D060E08AED82D168EC81E85D
:10077C007FD186EA54D261E885ED7AD164E18DE8C7
:10078C0077D162E089ED74D18FEA49D2FFD2ECD2F5
:02079C000895BE
:10079E00CF93DF93A8D280917B3F80FF06C0DED23D
:1007AE00882319F08FE08093793FA9D2882319F01E
:1007BE0080E18093793F9DD2882319F081E1809367
:1007CE00793FC8E5DFE3E9A1F0E0EE0FFF1FEC5C37
:1007DE00F04C0190F081E02D099589A3DF91CF9126
:0207EE0008956C
:1007F0006115710581F090E0FC01EE0FFF1FE85AD2
:10080000F04C60837183880F991FFC01EC59F04C08
:1008100040835183089590E0FC01EE0FFF1FE85ADA
:10082000F04C2CED36E020833183880F991FFC01BA
:0A083000EC59F04C1082118208957B
:10083A00BB27FA01A62F6217710581059105330BB3
:10084A0030FB66F0AA27660F771F881F991FAA1F19
:10085A00A21710F0A21B63953850A9F7A05DAA331E
:10086A0008F0A95DA19336F7B111B1931082CA01BC
:04087A000C948A054B
:10087E00CF93DF933ED2882341F0EBE7FFE38081F5
:10088E008D7F808382E080937A3F80917B3F81FDD4
:10089E000CC0EBE7FFE38B7F8083C8E5DFE38FEFD0
:1008AE008C8F21D21AD28AA101C081E0DF91CF9123
:0208BE0008959B
:1008C00040E068ED88E790E05FD240E068ED8CE7BB
:1008D00090E05AD240E068ED80E790E055D24BE0DE
:1008E00068ED81E690E050D240E068ED80E690E06F
:1008F0004BD240E068ED82E690E046D280E0089579
:10090000EBE7FFE380818E7F8083A8E5BFE382E091
:1009100092968C9392971496ED91FC911597509620
:100920008D919C9151970995823019F0833019F07F
:0E09300004C01ED1089536D108958CD10895CB
:10093E00CF93DF93CAE0DFE3E881AE2FB0E0A65F8E
:10094E00B04C11968C93A1E0AE0FB0E0A65FB04C08
:10095E0011966C9383E08E0F8883EE5FF0E0E65F76
:0A096E00F04C4183DF91CF91089512
:10097800E0E1F4E0808188608193E83184E0F80761
:10098800C9F7E2E3F4E0808188608193E83384E08A
:10099800F807C9F7E0E5F4E0808188608193E835DD
:0809A80084E0F807C9F7089587
:1009B000CF93DF93C82FD62F8C2F8EDE8823E1F3C1
:1009C000EAE0FFE3D183608170E08BE09FE381D0B8
:1009D00060E070E086EE96E0C3D1E2D150DF813076
:0809E000E9F3DF91CF910895C6
:1009E8009DD1A8E5BFE382E092968C9392971296E8
:1009F800ED91FC9113971E968D919C911F970995E7
:100A0800823019F0833019F004C0AED00895C6D0F2
:060A1800089512D10895BB
:100A1E00CF93DF93D82FC0EB96D18C2FFFD080E0F1
:100A2E00FDD080E1FBD0B1D18D2FEDD0AAD1A9D1CF
:100A3E00A8D1A7D1CF5FC83B79F7DF91CF910895A9
:100A4E0090917B3F91FD11C0EBE7FFE392609083A5
:100A5E00882321F081E08093793F03C082E0809368
:0E0A6E00793F96DE40D080E0089581E0089543
:100A7C00CF93DF93CAE0DFE3E881AE2FB0E0A65F4F
:100A8C00B04C11968C9382E08E0F8883EF5FF0E070
:0C0A9C00E65FF04C6183DF91CF9108957C
:100AA8008032910560F09C0143E04A95F1F700001F
:100AB8002052310920323105B8F78F7199270097F4
:0A0AC80019F000000197E9F7089506
:100AD2009C0190917B3F93FF0BC0E8E5FFE3258FDC
:100AE200368F678F70A3EBE7FFE3892F877F8083C1
:020AF200089565
:100AF400CF93DF9380917B3F81FF07C0CBE7DFE398
:100B0400C3D04BDE888181FDFBCFDF91CF91089567
:100B1400DC01FC01672F71917723E1F7329704C060
:100B24007C916D9370836291AE17BF07C8F30895EB
:100B34001F920F920FB60F9211248F9381E080932E
:0E0B44008A008F910F900FBE0F901F90189592
:100B5200BB272A3051F4992342F4BDE29095809547
:0E0B6200709561957F4F8F4F9F4F0C941E042E
:100B7000EBE7FFE38081816080838091743F880F81
:0A0B800081608093170884E0089557
:100B8A00E0E1F8E010821282168281E08383158206
:0A0B9A0017821482108680E008958F
:100BA400EBE7FFE38081816080838091743F880F4D
:080BB4008093170883E0089507
:100BBC0040E068ED80E191E0E1D0E0E1F1E012820B
:060BCC00138280E0089591
:100BD20053D0EBE7FFE380818D7F808382E08093B7
:060BE2007A3F8EE0089549
:100BE800AFD0A2D0EBE7FFE380818D7F80831092A6
:060BF8007A3F80E0089541
:100BFE0040E068ED80E890E0C0D0E0E8F0E01186DB
:060C0E00108680E008954D
:100C1400682F70E049E250E08CE09FE35CD089E209
:060C240080930A3F0895D1
:100C2A00AAE0BFE3EC9191E09E0F9C93F0E0E65FAF
:060C3A00F04C81830895D7
:100C40001CD0EBE7FFE380818D7F808310927A3F99
:040C50008EE0089595
:100C54006DD0EBE7FFE380818D7F808310927A3F34
:040C640080E008958F
:100C6800EBE7FFE380818D7F808310927A3F80E0FD
:020C78000895DD
:100C7A00E0E1F8E0848188608483858181608583EE
:020C8A000895CB
:100C8C00E0E1F8E0858188231CF0858186FFFACFAE
:020C9C000895B9
:100C9E0008DCAEDF14D00DDE0BD070DF88DF0895D8
:100CAE00259A2D9884E38A95F1F700002D9A0895E0
:0E0CBE0040E068ED80E590E060D080E00895B1
:0E0CCC0040E068ED80E091E059D080E00895AE
:0E0CDA00DC0101C06D9341505040E0F70895D9
:0C0CE800E0E1F8E083818F7383830895BE
:0C0CF400E0E1F8E08581806C85830895C4
:0C0D00008091150882FB882780F9089577
:0C0D0C008091150883FB882780F908956A
:0C0D1800E0E1F8E08481826084830895AB
:0C0D2400E0E1F8E0858188608583089597
:0C0D3000E0E1F8E0848183608483089592
:0C0D3C00E0E1F8E084818B7F848308955F
:0C0D4800E0E1F8E0848184608483089579
:0C0D540080E05EDF81E080930A3F08959C
:0A0D6000AB01BC0182E044DD089500
:0A0D6A0080911508829581700895AC
:0A0D74008FEF53DE80E051DE08959A
:090D7E004552524F52212033006E
:080D8800FC0164BF40830895E3
:080D900060E48CE30DDE089520
:080D980060E08CE309DE089520
:060DA00080E055DE08951D
:060DA600CADF83E008959E
:060DAC00C7DF84E008959A
:060DB200CADF88E008958D
:040DB80081E0089539
:040DBC0085E0089531
:040DC000D7DE0895DD
:040DC400D5DE0895DB
:040DC800EDDE0895BF
:040DCC0083E0089523
:020DD00017C941
:100DD2000100000000000000000000000000000010
:100DE2000000000000000000000000000000000001
:0A0DF20000000000000000000000F7
:100DFC003406B805D20505030D029902E206E40695
:100E0C00E0062A06D606D306F405D9062006800489
:040E1C00F404E905EC
:02000004008278
:090000000000020000C40700002A
:00000001FF
